:100000000C9462000C948A000C948A000C948A0070
:100010000C948A000C948A000C948A000C948A0038
:100020000C948A000C948A000C948A000C948A0028
:100030000C948A000C948A000C948A000C948A0018
:100040000C9427020C948A000C94F5010C94CF01B7
:100050000C948A000C948A000C948A000C948A00F8
:100060000C948A000C948A000000000025002800EF
:100070002B0000000000240027002A0000000000E0
:1000800023002600290004040404040404040202DA
:100090000202020203030303030301020408102007
:1000A0004080010204081020010204081020000012
:1000B0000008000201000003040700000000000027
:1000C0000000040411241FBECFEFD8E0DEBFCDBF77
:1000D00011E0A0E0B1E0ECE0F9E002C005900D9283
:1000E000A831B107D9F721E0A8E1B1E001C01D9224
:1000F000AC3CB207E1F710E0C2E6D0E004C02197C3
:10010000FE010E947904C136D107C9F70E9471022D
:100110000C9484040C940000CF92DF92EF92FF9233
:100120000F931F93CF93DF936C017A018B01C0E093
:10013000D0E0CE15DF0589F0D8016D918D01D60193
:10014000ED91FC910190F081E02DC6010995892B7C
:1001500011F47E0102C02196ECCFC701DF91CF914F
:100160001F910F91FF90EF90DF90CF900895089529
:1001700080E090E00895FC01538D448D252F30E000
:10018000842F90E0821B930B541710F0CF960895A4
:1001900001970895FC01918D828D981761F0828DF1
:1001A000DF01A80FB11D5D968C91928D9F5F9F73AB
:1001B000928F90E008958FEF9FEF0895FC01918D4D
:1001C000828D981731F0828DE80FF11D858D90E0BA
:1001D00008958FEF9FEF0895FC01918D228D892F57
:1001E00090E0805C9F4F821B91098F73992708953F
:1001F0008FE291E00E94EC0021E0892B09F420E0DD
:10020000822F0895FC01848DDF01A80FB11DA35A30
:10021000BF4F2C91848D90E001968F739927848F26
:10022000A689B7892C93A089B1898C9180648C931D
:10023000938D848D981306C00288F389E02D808108
:100240008F7D80830895EF92FF920F931F93CF933A
:10025000DF93EC0181E0888F9B8D8C8D981305C016
:10026000E889F989808185FD24C0F62E0B8D10E088
:100270000F5F1F4F0F731127E02E8C8DE8120CC0FB
:100280000FB607FCFACFE889F989808185FFF5CFA1
:10029000CE010E940201F1CF8B8DFE01E80FF11D0E
:1002A000E35AFF4FF0820B8FEA89FB8980818062DD
:1002B00007C0EE89FF896083E889F98980818064BD
:1002C000808381E090E0DF91CF911F910F91FF90AB
:1002D000EF900895CF93DF93EC01888D8823C9F0C8
:1002E000EA89FB89808185FD05C0A889B9898C913F
:1002F00086FD0FC00FB607FCF5CF808185FFF2CFDA
:10030000A889B9898C9185FFEDCFCE010E940201A9
:10031000E7CFDF91CF91089580E090E0892B29F01D
:100320000E94F80081110C94000008953FB7F894E2
:1003300080911D0190911E01A0911F01B09120019B
:1003400026B5A89B05C02F3F19F00196A11DB11D30
:100350003FBFBA2FA92F982F8827820F911DA11D6B
:10036000B11DBC01CD0142E0660F771F881F991FA8
:100370004A95D1F70895009769F0FC01019000209B
:10038000E9F73197AF01481B590BBC018FE291E0AF
:100390000C948C0080E090E008950E947F041F92EE
:1003A0000F920FB60F9211242F933F934F935F93A9
:1003B0006F937F938F939F93AF93BF93EF93FF932D
:1003C0008FE291E00E940201FF91EF91BF91AF9106
:1003D0009F918F917F916F915F914F913F912F915D
:1003E0000F900FBE0F901F9018951F920F920FB68F
:1003F0000F9211242F938F939F93EF93FF93E0918C
:100400003F01F09140018081E0914501F09146016A
:1004100082FD12C09081809148018F5F8F7320917F
:100420004901821751F0E0914801F0E0E15DFE4F93
:10043000958F8093480101C08081FF91EF919F913A
:100440008F912F910F900FBE0F901F9018951F92B4
:100450000F920FB60F9211242F933F938F939F9378
:10046000AF93BF938091190190911A01A0911B0144
:10047000B0911C013091180123E0230F2D3720F497
:100480000196A11DB11D05C026E8230F0296A11DEE
:10049000B11D209318018093190190931A01A09324
:1004A0001B01B0931C0180911D0190911E01A09130
:1004B0001F01B09120010196A11DB11D80931D0166
:1004C00090931E01A0931F01B0932001BF91AF91A3
:1004D0009F918F913F912F910F900FBE0F901F9082
:1004E0001895CF93DF93CDB7DEB7A1970FB6F894E9
:1004F000DEBF0FBECDBF789484B5826084BD84B565
:10050000816084BD85B5826085BD85B5816085BD0E
:1005100080916E00816080936E00109281008091C6
:10052000810082608093810080918100816080934E
:100530008100809180008160809380008091B10073
:1005400084608093B1008091B00081608093B0009E
:1005500080917A00846080937A0080917A00826032
:1005600080937A0080917A00816080937A008091F4
:100570007A00806880937A001092C100E0913F0178
:10058000F091400182E08083E0913B01F0913C01D9
:100590001082E0913D01F0913E018FEC808310923A
:1005A0004701E0914301F091440186E08083E091AE
:1005B0004101F0914201808180618083E09141019D
:1005C000F0914201808188608083E0914101F09147
:1005D0004201808180688083E0914101F091420175
:1005E00080818F7D808356EA252E50E0352EF101E3
:1005F0002491E2E9F0E084918823C9F090E0880F2B
:10060000991FFC01EE58FF4FA591B491FC01E859E8
:10061000FF4F459154919FB7F8943C91822F80955C
:1006200083238C93FA018081282B20839FBF3AE09B
:10063000432E512C612C712C8FE291E00E94EC0032
:10064000181619060CF06AC08FE291E00E94CA00E9
:1006500090932E0180932D018F32910579F0209196
:100660002B0130912C01F901EF5DFE4F80832F5F4C
:100670003F4F30932C0120932B0150C010922C013E
:1006800010922B0181E291E00E9431046C01990FDC
:10069000EE08FF08F7FE26C0E0912F01F09130012F
:1006A0000190F081E02D6DE28FE291E00995222723
:1006B0003327A9012C193D094E095F0919A28E01A2
:1006C0000F5D1F4FCA01B901A30192010E94570497
:1006D000605DF80162938F012115310541055105D7
:1006E00089F715C0A701960119A28E010F5D1F4F52
:1006F000CA01B901A30192010E945704605DF8018B
:1007000062938F01211531054105510589F7C80113
:100710000E94BB0182E191E00E94BB01EAEBF0E0A4
:100720008491F1019491E2E9F0E024912223A1F176
:10073000882339F1833091F038F48130A9F0823088
:1007400001F584B58F7D12C0873091F08830A1F01B
:100750008430B9F4809180008F7D03C08091800047
:100760008F77809380000DC084B58F7784BD09C0DA
:100770008091B0008F7703C08091B0008F7D80930F
:10078000B000E22FF0E0EE0FFF1FE458FF4FA591FD
:10079000B4918C919823A9F585E191E00E94BB0169
:1007A000E0912F01F09130010190F081E02D6FE296
:1007B0008FE291E009950E9496016B017C0184E62D
:1007C000882E912CA12CB12C0E949601DC01CB012A
:1007D0008C199D09AE09BF09883E9340A105B1055A
:1007E00058F0F1E08F1A9108A108B10828EEC20E66
:1007F00023E0D21EE11CF11C81149104A104B10478
:1008000019F70E948C0118CFEFE2F1E013821282F7
:1008100088EE93E0A0E0B0E084839583A683B7835D
:1008200084E091E09183808385EC90E095878487D4
:1008300084EC90E09787868780EC90E0918B808BAA
:1008400081EC90E0938B828B82EC90E0958B848B93
:1008500086EC90E0978B868B118E128E138E148E01
:100860000895FC0188279927E89421912032E9F323
:10087000293010F02E30C8F32B3241F02D3239F4EC
:10088000689404C00E944F04820F911D219120534F
:100890002A30C0F31EF4909581959F4F08957AE019
:1008A000979F902D879F802D910D11240895A1E28F
:1008B0001A2EAA1BBB1BFD010DC0AA1FBB1FEE1FDA
:1008C000FF1FA217B307E407F50720F0A21BB30B25
:1008D000E40BF50B661F771F881F991F1A9469F7A1
:1008E00060957095809590959B01AC01BD01CF01FD
:1008F0000895EE0FFF1F0590F491E02D099481E01B
:0C09000090E0F8940C948404F894FFCF6D
:10090C000000000023018C00BB006A01EC00CA004F
:08091C00DE000D0A00310000AD
:107E0000112484B714BE81FFF0D085E080938100F7
:107E100082E08093C00088E18093C10086E0809377
:107E2000C20080E18093C4008EE0C9D0259A86E02C
:107E300020E33CEF91E0309385002093840096BBD3
:107E4000B09BFECF1D9AA8958150A9F7CC24DD24C4
:107E500088248394B5E0AB2EA1E19A2EF3E0BF2EE7
:107E6000A2D0813461F49FD0082FAFD0023811F036
:107E7000013811F484E001C083E08DD089C08234E0
:107E800011F484E103C0853419F485E0A6D080C0E4
:107E9000853579F488D0E82EFF2485D0082F10E0AE
:107EA000102F00270E291F29000F111F8ED06801E7
:107EB0006FC0863521F484E090D080E0DECF843638
:107EC00009F040C070D06FD0082F6DD080E0C81688
:107ED00080E7D80618F4F601B7BEE895C0E0D1E017
:107EE00062D089930C17E1F7F0E0CF16F0E7DF06D8
:107EF00018F0F601B7BEE89568D007B600FCFDCFD4
:107F0000A601A0E0B1E02C9130E011968C91119780
:107F100090E0982F8827822B932B1296FA010C0160
:107F200087BEE89511244E5F5F4FF1E0A038BF0790
:107F300051F7F601A7BEE89507B600FCFDCF97BE46
:107F4000E89526C08437B1F42ED02DD0F82E2BD052
:107F50003CD0F601EF2C8F010F5F1F4F84911BD097
:107F6000EA94F801C1F70894C11CD11CFA94CF0C13
:107F7000D11C0EC0853739F428D08EE10CD085E9AC
:107F80000AD08FE07ACF813511F488E018D01DD067
:107F900080E101D065CF982F8091C00085FFFCCF94
:107FA0009093C60008958091C00087FFFCCF809118
:107FB000C00084FD01C0A8958091C6000895E0E648
:107FC000F0E098E1908380830895EDDF803219F02E
:107FD00088E0F5DFFFCF84E1DECF1F93182FE3DFCA
:107FE0001150E9F7F2DF1F91089580E0E8DFEE27F6
:047FF000FF270994CA
:027FFE00040479
:0400000300007E007B
:00000001FF
