:100000000C9434000C9449000C9449000C94490061
:100010000C9449000C9449000C9449000C9449003C
:100020000C9449000C9449000C9449000C9449002C
:100030000C9449000C9449000C9449000C9449001C
:100040000C9449000C9449000C9449000C9449000C
:100050000C9449000C9449000C9449000C944900FC
:100060000C9449000C94490011241FBECFEFD8E036
:10007000DEBFCDBF11E0A0E0B1E0E0EFF0E002C0F4
:1000800005900D92A030B107D9F70E945F000C9443
:1000900076000C9400001092C50083E38093C400A6
:1000A00088E18093C10086E08093C2000895E0EC6F
:1000B000F0E080818823ECF78091C60008950E94CB
:1000C0004B008FEF87B9C1E006EC10E0F801C08368
:1000D0000E94570088B9FFEF22E587E0F1502040E9
:1000E0008040E1F700C00000CF5FF0CFF894FFCF71
:00000001FF
