:100000000C9434000C9446000C9446000C9446006A
:100010000C9446000C9446000C9446000C94460048
:100020000C9446000C9446000C9446000C94460038
:100030000C9446000C9446000C9454000C9446001A
:100040000C9446000C9446000C9446000C94460018
:100050000C9446000C9446000C9446000C94460008
:100060000C9446000C94460011241FBECFEFD8E03C
:10007000DEBFCDBF21E0A0E0B1E001C01D92A23003
:10008000B207E1F70E9448000C9472000C94000043
:100090008FEF84B982E084BD93EC97BD80936E00AE
:1000A00085B5856085BDFFCF1F920F920FB60F9269
:1000B00011248F939F9380910001909101010196EB
:1000C00090930101809300018536910524F095B14C
:1000D00081E0892785B99F918F910F900FBE0F9076
:0800E0001F901895F894FFCF62
:00000001FF
