:100000000C9434000C943E000C943E000C943E0082
:100010000C943E000C943E000C943E000C943E0068
:100020000C943E000C943E000C943E000C943E0058
:100030000C943E000C943E000C943E000C943E0048
:100040000C943E000C943E000C943E000C943E0038
:100050000C943E000C943E000C943E000C943E0028
:100060000C943E000C943E0011241FBECFEFD8E04C
:10007000DEBFCDBF0E9454000C9474000C940000AD
:100080001092C50083E38093C40088E18093C1008F
:1000900086E08093C2000895E0ECF0E08081882340
:1000A000ECF78091C60008950E9440008FEF87B959
:1000B000C1E006EC10E0F801C083FFEF22E587E025
:1000C000F15020408040E1F700C000000E944C0049
:1000D00088B99FEFE0E7F2E09150E040F040E1F7AF
:0C00E00000C00000CF5FE7CFF894FFCF16
:00000001FF
