:100000000C9435000C945D000C945D000C945D0024
:100010000C945D000C945D000C945D000C945D00EC
:100020000C945D000C945D000C945D000C945D00DC
:100030000C945D000C945D000C945D000C945D00CC
:100040000C9494020C945D000C9462020C943C029B
:100050000C945D000C945D000C945D000C945D00AC
:100060000C945D000C945D00A50311241FBECFEF1E
:10007000D8E0DEBFCDBF11E0A0E0B1E0E2E0F8E003
:1000800002C005900D92A231B107D9F721E0A2E19B
:10009000B1E001C01D92AE3BB207E1F710E0C5E34D
:1000A000D0E004C02197FE010E94F403C433D107BD
:1000B000C9F70E94DE020C94FF030C94000080E458
:1000C00080937C0080917A00806480937A00809194
:1000D0007A0086FDFCCF809178002091790090E035
:1000E000922B0895E0912101F09122010190F0817D
:1000F000E02D682F81E291E00994CF92DF92EF9298
:10010000FF920F931F93CF93DF936C017A018B01C2
:10011000C0E0D0E0CE15DF0589F0D8016D918D01EA
:10012000D601ED91FC910190F081E02DC601099579
:10013000892B11F47E0102C02196ECCFC701DF911B
:10014000CF911F910F91FF90EF90DF90CF90089586
:10015000089580E090E00895FC01538D448D252F93
:1001600030E0842F90E0821B930B541710F0CF9651
:10017000089501970895FC01918D828D981761F083
:10018000828DDF01A80FB11D5D968C91928D9F5FCE
:100190009F73928F90E008958FEF9FEF0895FC0179
:1001A000918D828D981731F0828DE80FF11D858D2C
:1001B00090E008958FEF9FEF0895FC01918D228DBF
:1001C000892F90E0805C9F4F821B91098F73992744
:1001D000089581E291E00E94DD0021E0892B09F47D
:1001E00020E0822F0895FC01848DDF01A80FB11D4E
:1001F000A35ABF4F2C91848D90E001968F7399275D
:10020000848FA689B7892C93A089B1898C91806449
:100210008C93938D848D981306C00288F389E02D0A
:1002200080818F7D80830895EF92FF920F931F93BB
:10023000CF93DF93EC0181E0888F9B8D8C8D981399
:1002400005C0E889F989808185FD24C0F62E0B8DD3
:1002500010E00F5F1F4F0F731127E02E8C8DE812F7
:100260000CC00FB607FCFACFE889F989808185FFB9
:10027000F5CFCE010E94F300F1CF8B8DFE01E80F88
:10028000F11DE35AFF4FF0820B8FEA89FB898081D1
:10029000806207C0EE89FF896083E889F9898081DF
:1002A0008064808381E090E0DF91CF911F910F9176
:1002B000FF90EF900895CF93DF93EC01888D882312
:1002C000C9F0EA89FB89808185FD05C0A889B989C3
:1002D0008C9186FD0FC00FB607FCF5CF808185FF9E
:1002E000F2CFA889B9898C9185FFEDCFCE010E940C
:1002F000F300E7CFDF91CF9108958F929F92AF9255
:10030000BF920F931F93CF93DF93CDB7DEB7A19723
:100310000FB6F894DEBF0FBECDBF19A2423008F46D
:100320004AE08E010F5D1F4F842E912CA12CB12C21
:10033000A50194010E94D203E62FB901CA01015020
:100340001109EA3014F4E05D01C0E95CD801EC93D6
:10035000232B242B252B61F70115110571F0F801D2
:1003600001900020E9F73197AF01401B510BB80114
:1003700081E291E00E947D0002C080E090E0A196C1
:100380000FB6F894DEBF0FBECDBFDF91CF911F91A6
:100390000F91BF90AF909F908F900895CF92DF9272
:1003A000EF92FF9281E291E00E94DD00181619069B
:1003B0000CF055C081E291E00E94BB008F9751F094
:1003C00080911201909113010196909313018093F3
:1003D000120145C010921301109212010E945F0099
:1003E0006C01990FEE08FF08F7FE0CC08DE20E9429
:1003F000720066277727CB016C197D098E099F094A
:100400004AE003C04AE0C701B6010E947D018FE2C5
:100410000E9472008FB7F8944091190150911A010F
:1004200060911B0170911C018FBFC0901D01D09085
:100430001E01E0901F01F09020014C195D09CA01D6
:10044000550FAA0BBB0B8C0D9D1DAE1DBF1D8093C0
:100450001D0190931E01A0931F01B0932001FF90F6
:10046000EF90DF90CF9008950E94E90081110C94E5
:10047000CE0108950E94FA031F920F920FB60F92B9
:1004800011242F933F934F935F936F937F938F9399
:100490009F93AF93BF93EF93FF9381E291E00E940C
:1004A000F300FF91EF91BF91AF919F918F917F9159
:1004B0006F915F914F913F912F910F900FBE0F90D1
:1004C0001F9018951F920F920FB60F9211242F9321
:1004D0008F939F93EF93FF93E0913101F09132015D
:1004E0008081E0913701F091380182FD12C0908146
:1004F00080913A018F5F8F7320913B01821751F0F9
:10050000E0913A01F0E0EF5DFE4F958F80933A0164
:1005100001C08081FF91EF919F918F912F910F905A
:100520000FBE0F901F9018951F920F920FB60F924B
:1005300011242F933F938F939F93AF93BF938091F9
:10054000190190911A01A0911B01B0911C013091E9
:10055000180123E0230F2D3720F40196A11DB11DB2
:1005600005C026E8230F0296A11DB11D2093180196
:100570008093190190931A01A0931B01B0931C0161
:100580008091140190911501A0911601B09117016D
:100590000196A11DB11D8093140190931501A093A4
:1005A0001601B0931701BF91AF919F918F913F9129
:1005B0002F910F900FBE0F901F901895789484B5CF
:1005C000826084BD84B5816084BD85B5826085BD4F
:1005D00085B5816085BD80916E00816080936E00DD
:1005E00010928100809181008260809381008091CF
:1005F0008100816080938100809180008160809380
:1006000080008091B10084608093B1008091B0003F
:1006100081608093B00080917A00846080937A003A
:1006200080917A00826080937A0080917A00816064
:1006300080937A0080917A00806880937A0010928B
:10064000C100E0913101F091320182E08083E091BC
:100650002D01F0912E011082E0912F01F0913001D7
:100660008FEC808310923901E0913501F0913601D1
:1006700086E08083E0913301F091340180818061D4
:100680008083E0913301F091340180818860808320
:10069000E0913301F0913401808180688083E091A2
:1006A0003301F091340180818F7D80832FB7F894DE
:1006B0008091190190911A01A0911B01B0911C0128
:1006C0002FBF40911D0150911E0160911F0170913B
:1006D0002001841B950BA60BB70B80319742A10517
:1006E000B10580F10E945F006C01990FEE08FF08D0
:1006F000F7FE0CC08DE20E94720066277727CB01BF
:100700006C197D098E099F094AE003C04AE0C701C0
:10071000B6010E947D018FE20E94720080911D014E
:1007200090911E01A0911F01B0912001805F984D12
:10073000AF4FBF4F80931D0190931E01A0931F01E7
:10074000B09320010E943402B1CFE1E2F1E01382C4
:10075000128288EE93E0A0E0B0E084839583A683C4
:10076000B78384E091E09183808385EC90E0958766
:10077000848784EC90E09787868780EC90E0918B6B
:10078000808B81EC90E0938B828B82EC90E0958B58
:10079000848B86EC90E0978B868B118E128E138E55
:1007A000148E0895A1E21A2EAA1BBB1BFD010DC0D9
:1007B000AA1FBB1FEE1FFF1FA217B307E407F50711
:1007C00020F0A21BB30BE40BF50B661F771F881FED
:1007D000991F1A9469F760957095809590959B0183
:1007E000AC01BD01CF010895EE0FFF1F0590F491FC
:1007F000E02D099481E090E0F8940C94FF03F894C4
:02080000FFCF28
:100802000000000014017D00AC005B01DD00BB00B4
:02081200CF0015
:107E0000112484B714BE81FFF0D085E080938100F7
:107E100082E08093C00088E18093C10086E0809377
:107E2000C20080E18093C4008EE0C9D0259A86E02C
:107E300020E33CEF91E0309385002093840096BBD3
:107E4000B09BFECF1D9AA8958150A9F7CC24DD24C4
:107E500088248394B5E0AB2EA1E19A2EF3E0BF2EE7
:107E6000A2D0813461F49FD0082FAFD0023811F036
:107E7000013811F484E001C083E08DD089C08234E0
:107E800011F484E103C0853419F485E0A6D080C0E4
:107E9000853579F488D0E82EFF2485D0082F10E0AE
:107EA000102F00270E291F29000F111F8ED06801E7
:107EB0006FC0863521F484E090D080E0DECF843638
:107EC00009F040C070D06FD0082F6DD080E0C81688
:107ED00080E7D80618F4F601B7BEE895C0E0D1E017
:107EE00062D089930C17E1F7F0E0CF16F0E7DF06D8
:107EF00018F0F601B7BEE89568D007B600FCFDCFD4
:107F0000A601A0E0B1E02C9130E011968C91119780
:107F100090E0982F8827822B932B1296FA010C0160
:107F200087BEE89511244E5F5F4FF1E0A038BF0790
:107F300051F7F601A7BEE89507B600FCFDCF97BE46
:107F4000E89526C08437B1F42ED02DD0F82E2BD052
:107F50003CD0F601EF2C8F010F5F1F4F84911BD097
:107F6000EA94F801C1F70894C11CD11CFA94CF0C13
:107F7000D11C0EC0853739F428D08EE10CD085E9AC
:107F80000AD08FE07ACF813511F488E018D01DD067
:107F900080E101D065CF982F8091C00085FFFCCF94
:107FA0009093C60008958091C00087FFFCCF809118
:107FB000C00084FD01C0A8958091C6000895E0E648
:107FC000F0E098E1908380830895EDDF803219F02E
:107FD00088E0F5DFFFCF84E1DECF1F93182FE3DFCA
:107FE0001150E9F7F2DF1F91089580E0E8DFEE27F6
:047FF000FF270994CA
:027FFE00040479
:0400000300007E007B
:00000001FF
