:100000000C9434000C944F000C944F000C944F004F
:100010000C944F000C944F000C944F000C944F0024
:100020000C944F000C944F000C944F000C944F0014
:100030000C944F000C944F000C944F000C944F0004
:100040000C944F000C944F000C944F000C944F00F4
:100050000C944F000C944F000C944F000C944F00E4
:100060000C944F000C944F0011241FBECFEFCDBF56
:1000700011E0A0E0B1E0E0E4F2E002C005900D92F2
:10008000A030B107D9F711E0A0E0B1E001C01D92A6
:10009000A230B107E1F70E94BD000C941F010C943F
:1000A0000000FB019F01423074F0453264F4642F7C
:1000B00077270E940B01805D8A330CF0895D819364
:1000C000CB010097A1F71082C9010C946700DC01F5
:1000D000FC01672F71917723E1F7329704C07C917F
:1000E0006D9370836291AE17BF07C8F30895ECE774
:1000F000F0E0808180648083EAE7F0E080818768B7
:1001000080830895ECE7F0E090818F70907F892BD9
:100110008083EAE7F0E080818064808380917A00C8
:1001200086FDFCCF8091780090917900089510921F
:10013000C50083E38093C40088E18093C10086E01A
:100140008093C2000895982F8091C00085FFFCCF56
:100150009093C6000895CF93DF93EC0188818823A4
:1001600031F00E94A300219688818823D1F78DE089
:100170000E94A300DF91CF9108950F931F93CF9317
:10018000DF93CDB7DEB724970FB6F894DEBF0FBE6E
:10019000CDBF0E9497000E94770081E084B98E0154
:1001A0000F5F1F4F80E00E9482000497969587950D
:1001B00090930101809300014AE050E0B8010E9451
:1001C0005100C8010E94AB0028EE33E080E991E0C5
:1001D0000197F1F721503040C9F780E00E9482007A
:1001E0008B39910560F081E085B928EE33E080E934
:1001F00091E00197F1F721503040A1F2F8CF15B806
:1002000028EE33E080E991E00197F1F7215030408A
:1002100009F4C8CFF7CFAA1BBB1B51E107C0AA1F27
:10022000BB1FA617B70710F0A61BB70B881F991F97
:100230005A95A9F780959095BC01CD010895FFCFFF
:00000001FF
