:100000000C942A000C943F000C943F000C943F0089
:100010000C943F000C943F000C943F000C943F0064
:100020000C943F000C943F000C943F000C943F0054
:100030000C943F000C943F000C943F000C943F0044
:100040000C943F000C943F000C943F000C943F0034
:100050000C943F0011241FBECFE5D8E0DEBFCDBF1A
:1000600010E0A0E6B0E0EEEFF0E002C005900D92E7
:10007000AA36B107D9F70E9441000C947D000C9478
:100080000000CF93DF93CDB7DEB72A970FB6F89471
:10009000DEBF0FBECDBF8AE0E0E6F0E0DE011196E4
:1000A00001900D928A95E1F78FEF81BB87BB9E018E
:1000B000255F3F4FDE0111961DC08C9188BB4FEF2D
:1000C00080E792E0415080409040E1F700C000009E
:1000D000819182BB4FEF82E597E041508040904094
:1000E000E1F700C000002E173F0739F711962A17D5
:0E00F0003B0701F3FE013196E0CFF894FFCFFD
:0A00FE00065B4F666D7D07FF6F3F44
:00000001FF
