S00F00004144435F6C65642E73726563B9
S11300000C9434000C9446000C9446000C94460066
S11300100C9446000C9446000C9446000C94460044
S11300200C9446000C9446000C9446000C94460034
S11300300C9446000C9446000C9446000C94460024
S11300400C9446000C9446000C9446000C94460014
S11300500C9446000C9446000C9446000C94460004
S11300600C9446000C94460011241FBECFEFD8E038
S1130070DEBFCDBF21E0A0E0B1E001C01D92A230FF
S1130080B207E1F70E948D000C94F9000C94000073
S1130090ECE7F0E0808180648083EAE7F0E080812F
S11300A0876880830895ECE7F0E09081907F8F70FB
S11300B0892B8083EAE7F0E08081806480838081FB
S11300C086FDFDCF8091780090917900089510927B
S11300D0C50083E38093C40088E18093C10086E077
S11300E08093C2000895E0ECF0E0908195FFFDCF8D
S11300F08093C6000895CF93DF93EC018881882311
S113010031F021960E94730089918111FBCF8DE01B
S11301100E947300DF91CF910895CF93DF9300D0B5
S113012000D0CDB7DEB70E9467000E94480081E08E
S113013084B980E00E9453009093010180930001F0
S11301404AE0BE016F5F7F4F0E94CF00CE0101964F
S11301500E947B002FEF81EE94E02150804090407C
S1130160E1F700C0000080E00E945300813092401B
S113017058F0289A8FEF91EE24E08150904020406F
S1130180E1F700C00000D5CF28988FEF91EE24E06E
S1130190815090402040E1F700C00000CACFBB2747
S11301A0FB015527AA27880F991FAA1FA41710F02F
S11301B0A41B83955051B9F7A05DAA3308F0A95D3B
S11301C0A193009779F7B111B1931192CB010C94DB
S11301D0E900DC01FC01672F71917723E1F7329785
S11301E004C07C916D9370836291AE17BF07C8F30E
S10901F00895F894FFCF0E
S9030000FC
