:100000000C942A000C9434000C9434000C943400AA
:100010000C9434000C9434000C9434000C94340090
:100020000C9434000C9434000C9434000C94340080
:100030000C9434000C9434000C9434000C94340070
:100040000C9434000C9434000C9434000C94340060
:100050000C94340011241FBECFE5D8E0DEBFCDBF25
:100060000E9436000C9489000C9400008FEF81BB35
:1000700061E070E020E030E042B3CB01022E02C02C
:10008000880F991F0A94E2F7942F982B92BB4FE7A1
:1000900059EAE3E041505040E040E1F700C0000081
:1000A00092B38095892382BB4FE759EA83E04150A0
:1000B00050408040E1F700C000002F5F3F4F2830E4
:1000C0003105D1F626E030E042B3CB01022E02C06A
:1000D000880F991F0A94E2F7942F982B92BBEFE7B1
:1000E00049EA53E0E15040405040E1F700C00000D1
:1000F00092B38095892382BB8FE799EAE3E0815030
:100100009040E040E1F700C0000021503109E1F6E5
:06011000B1CFF894FFCF0F
:00000001FF
