S01700004763634170706C69636174696F6E322E737265635A
S11300000C942A000C943F000C943F000C943F0085
S11300100C943F000C943F000C943F000C943F0060
S11300200C943F000C943F000C943F000C943F0050
S11300300C943F000C943F000C943F000C943F0040
S11300400C943F000C943F000C943F000C943F0030
S11300500C943F0011241FBECFE5D8E0DEBFCDBF16
S113006010E0A0E6B0E0E0E1F1E002C005900D92FE
S1130070AA36B107D9F70E9441000C9486000C946B
S11300800000CF93DF93CDB7DEB72A970FB6F8946D
S1130090DEBF0FBECDBFFF24FA9403E0CE0101966C
S11300A06C019E01255F3F4F41E092E0F4BA07BB2B
S11300B08AE0E0E6F0E0D60101900D928A95E1F73E
S11300C06C2D5D2DD60118BAE62FF52F48BB8C9107
S11300D085BB1FEF70E782E0115070408040E1F76C
S11300E000C0000098BB819185BB1FEF70E782E0E0
S11300F0115070408040E1F700C00000E217F307A0
S113010029F71196A217B307F1F6D0CFF894FFCFD1
S10D01103F065B4F666D7D07FF6F2D
S9030000FC
