S01400004D6F746F72636F6E74726F6C2E73726563FE
S11300000C9434000C943E000C943E000C943E007E
S11300100C943E000C943E000C943E000C943E0064
S11300200C943E000C943E000C943E000C943E0054
S11300300C943E000C943E000C943E000C943E0044
S11300400C943E000C943E000C943E000C943E0034
S11300500C943E000C943E000C943E000C943E0024
S11300600C943E000C943E0011241FBECFEFD8E048
S1130070DEBFCDBF0E9440000C946B000C940000C6
S113008083E087B9409A2FEF87EA91E621508040B8
S11300909040E1F700C0000040982FEF81EE94E01B
S11300A0215080409040E1F700C00000419A2FEFBA
S11300B087EA91E6215080409040E1F700C00000BB
S11300C041982FEF81EE94E0215080409040E1F779
S10D00D000C00000D7CFF894FFCF62
S9030000FC
